S01C000048696B696E675F4261675F46756C6C5F436F64652E7372656379
S11300000C9407010C9424010C9424010C942401F5
S11300100C9424010C9424010C9424010C942401C8
S11300200C9424010C9424010C9424010C942401B8
S11300300C9424010C9424010C9424010C942401A8
S11300400C9409040C9424010C9424010C942401B0
S11300500C94240178077B077D077F0783078507B6
S113006089078D07084AD73B3BCE016E84BCBFFD90
S1130070C12F3D6C74319ABD56833DDA3D00C77F74
S113008011BED9E4BB4C3E916BAAAABE000000800D
S11300903F07634236B79BD8A71A39685618AEBAD9
S11300A0AB558C1D3CB7CC5763BD6DEDFD753EF66D
S11300B0177231BF000000803F08000000BE922488
S11300C049123EABAAAA2ABECDCCCC4C3E000000BD
S11300D080BEABAAAAAA3E00000000BF00000080B8
S11300E03F0000000000084178D3BB4387D1133D93
S11300F0190E3CC3BD4282AD2B3E68EC8276BED95C
S11301008FE1A93E4C80EFFFBE01C4FF7F3F00009A
S11301100000000000407A10F35A00A0724E180943
S11301200010A5D4E80000E87648170000E40B545A
S1130130020000CA9A3B000000E1F5050000809629
S11301409800000040420F000000A086010000005B
S1130150102700000000E803000000006400000015
S113016000000A00000000000100000000002C76DE
S1130170D888DC674F0823DFC1DFAE59E1B1B796F9
S1130180E5E3E453C63AE651997696E8E6C2842656
S1130190EB898C9B62ED407C6FFCEFBC9C9F40F232
S11301A0BAA56FA5F490055A2AF75C936B6CF967AE
S11301B06DC11BFCE0E40D47FEF520E6B500D0ED73
S11301C0902E0300943577050080841E08000020DB
S11301D04E0A000000C80C333333330F986E128379
S11301E01141EF8D2114893BE65516CFFEE6DB184D
S11301F0D1844B381BF77C1D901DA4BBE424203212
S113020084725E228100C9F124ECA1E53D2711240A
S11302101FBECFE5D8E0DEBFCDBF11E0A0E6B0E061
S1130220E4E4F8E202C005900D92A63DB107D9F7C7
S113023021E0A6EDB1E001C01D92A03EB207E1F7B6
S11302400E9487060C9420140C9400008E9A9698B1
S11302502FEF89EF90E0215080409040E1F700C0FB
S11302600000969A08958E988699FECF869BFECFBD
S11302708699FECF089588E090E0869BFECF20EA21
S11302802A95F1F7869B07C02091D601220F2160A1
S11302902093D60105C02091D601220F2093D601C8
S11302A08699FECF019749F78091D601089598B3B6
S11302B09F70282F207F922B98BBC098C19A35E05D
S11302C03A95F1F70000C198EFE8F1E03197F1F7C2
S11302D000C0000028B32F70F0E18F9FC0011124EB
S11302E0822B88BBC19A35E03A95F1F70000C1989A
S11302F08FE39FE10197F1F700C00000089598B3E0
S11303009F70282F207F922B98BBC09AC19A35E00A
S11303103A95F1F70000C198EFE8F1E03197F1F771
S113032000C0000028B32F70F0E18F9FC00111249A
S1130330822B88BBC19A35E03A95F1F70000C19849
S11303408FE39FE10197F1F700C0000008958FEF5C
S113035087BB2FEF83EC99E0215080409040E1F778
S113036000C0000083E30E94570182E30E9457010A
S113037088E20E9457018CE00E94570181E00E94AC
S113038057018FE39FE10197F1F700C0000082E875
S11303900E9457010895CF93DF9300D0CDB7DEB705
S11303A090E8998390EC9A83FE01E60FF11D918108
S11303B0890F0E9457010F900F90DF91CF910895FC
S11303C00F931F93CF93FC018081882359F08F01F1
S11303D0C0E00E947F01CF5FF801EC0FF11D808126
S11303E08111F7CFCF911F910F91089581E00E9461
S11303F057018FE39FE10197F1F700C000000895D2
S1130400CF93DF9300D000D01F92CDB7DEB70E9408
S1130410A7010E94F60160E080E00E94CB0180E722
S113042090E00E94E00161E080E00E94CB018BE754
S113043090E00E94E0010E9426010E9433010E9484
S11304403B018093DB010E943B018093D8010E9411
S11304503B018093DA010E943B018093DC010E94FE
S11304603B018093D901E091DB01F0E09091D80148
S11304709F01290F311D9091DA01290F311D9091AF
S1130480DC01290F311D482F50E02417350749F0AE
S113049060E080E00E94CB018AE890E00E94E001E5
S11304A05EC04AE0BE016F5F7F4FCF010E94CF0E56
S11304B060E08BE00E94CB01CE0101960E94E00136
S11304C080E990E00E94E0018091D8014AE0BE01F9
S11304D06F5F7F4F90E00E94CF0ECE0101960E9485
S11304E0E00182E990E00E94E0018091DA014AE0B3
S11304F0BE016F5F7F4F90E00E94CF0E61E086E007
S11305000E94CB01CE0101960E94E00180E990E0B7
S11305100E94E0018091DC014AE0BE016F5F7F4FE1
S113052090E00E94CF0ECE0101960E94E0018FED73
S11305300E947F0184E990E00E94E0018091D9014A
S11305404AE0BE016F5F7F4F90E00E94CF0ECE0164
S113055001960E94E00182EB90E00E94E0018FE3AB
S11305609CE90197F1F700C0000065CF95B39F7037
S1130570282F207F922B95BBA898AA9A35E03A950C
S1130580F1F70000AA98EFE1F3E03197F1F700C02A
S1130590000025B32F70F0E18F9FC0011124822B3E
S11305A085BBAA9A35E03A95F1F70000AA988FE343
S11305B09FE10197F1F700C00000089595B39F7083
S11305C0282F207F922B95BBA89AAA9A35E03A95BA
S11305D0F1F70000AA98EFE1F3E03197F1F700C0DA
S11305E0000025B32F70F0E18F9FC0011124822BEE
S11305F085BBAA9A35E03A95F1F70000AA988FE3F3
S11306009FE10197F1F700C0000008958FEF84BBCC
S11306102FEF89EF90E0215080409040E1F700C037
S1130620000082E00E94B60288E20E94B6028CE0DA
S11306300E94B60286E00E94B60281E00E94B602E1
S11306408FE39FE10197F1F700C000000895CF9375
S1130650DF93EC018881882331F021960E94DE0229
S113066089918111FBCFDF91CF910895CF93C42F4E
S1130670811108C0603178F4862F8F7080680E94E1
S1130680B60209C0813039F4603128F4862F8F70A6
S1130690806C0E94B6028C2F90E00E942703CF91B9
S11306A0089581E00E94B6028FE39FE10197F1F77C
S11306B000C0000080E80E94B602089530EF2FEFDA
S11306C09FEE6FED5FEB4FE737BB28BB88B38F70AE
S11306D088BB000086B38F708093DD018F30B1F743
S11306E07FEF89EFE0E071508040E040E1F700C027
S11306F0000086B38F708093DD018F3089F37FEF24
S113070083EFE1E071508040E040E1F700C0000079
S113071086B38F708093DD018F3011F398BB000096
S113072086B38F708093DD018F3019F01092DE0153
S113073024C068BB000086B38F708093DD018F30C6
S113074021F081E08093DE0118C058BB000086B31D
S11307508F708093DD018F3021F082E08093DE0181
S11307600CC048BB000086B38F708093DD018F30CE
S113077009F4AACF83E08093DE018091DD018E30FD
S113078059F4E091DE01F0E0EE0FFF1FEE0FFF1FC2
S1130790E05AFF4F808108958D3059F4E091DE01D5
S11307A0F0E0EE0FFF1FEE0FFF1FE05AFF4F8181B5
S11307B008958B3059F4E091DE01F0E0EE0FFF1F55
S11307C0EE0FFF1FE05AFF4F82810895E091DE0192
S11307D0F0E0EE0FFF1FEE0FFF1FE05AFF4F838183
S11307E008953E9A86B1876086B93D9A339A379ABE
S11307F07894369A08951ABA8FEF84BB15BA0E947A
S1130800F1038091D701873910F0AD9AFACF15BA68
S1130810F8CF1F920F920FB60F9211248F9385B1C8
S11308208093D701369A8F910F900FBE0F901F902F
S1130830189511B88FEF80B9089594EA96BF06B65B
S113084007FEFDCF91B1987F983071F483B984E8A5
S113085086BF06B607FEFDCF81B1887F883131F0AF
S1130860803231F083E0089580E0089581E00895B6
S113087082E0089594EA96BF06B607FEFDCF91B1D3
S1130880987F903171F483B984E886BF06B607FE79
S1130890FDCF81B1887F803431F0803231F083E044
S11308A0089580E0089581E0089582E0089584E940
S11308B086BF06B604FCFDCF08951F93CF93DF9344
S11308C0182FC4EAD4E8C6BF06B607FEFDCF81B12F
S11308D0887F8830C1F713B9D6BF06B607FEFDCFAF
S11308E081B1887F883119F00E945704ECCFDF91E1
S11308F0CF911F91089583B984E886BF06B607FE99
S1130900FDCF81B1887F883221F0803321F082E0ED
S1130910089580E0089581E008958CE30E941D0409
S113092080E00E947B0480E70E947B0480EA0E94AE
S11309307B0480E00E947B040E945704089584ECA9
S113094086BF06B607FEFDCF83B1089584E886BF4F
S113095006B607FEFDCF83B108958F929F92AF92A2
S1130960BF92CF92DF92EF92FF921F93CF93DF93C8
S11309708CE30E945D0483E00E947B048DE30E946B
S11309803A040E949F04C82F0E949F046C2F70E0B9
S1130990762F6627EB01C82B0E949F040E949F04B8
S11309A00E949F04182F0E94A604612F70E0762FE6
S11309B066277B01E82A0E945704BE01DD0F880BDD
S11309C0990B0E94F70B4B015C01B701FF0C880BDC
S11309D0990B0E94F70BA50194010E94AF0A2AEC1F
S11309E037E34BED5BE30E942F0A6B017C012BED97
S11309F03FE049EC50E40E94CE0C181654F42BED61
S1130A003FE049EC50E4C701B6010E942F0A6B0194
S1130A107C0120E030E0A901C701B6010E940E0B61
S1130A20882354F42BED3FE049EC50E4C701B601B0
S1130A300E94300A6B017C0120E030E044E353E47F
S1130A40C701B6010E94990D2BED3FE049E450E443
S1130A500E94130B0E94BF0BCB01DF91CF911F911A
S1130A60FF90EF90DF90CF90BF90AF909F908F90CA
S1130A700895CF93DF93CDB7DEB764970FB6F8949C
S1130A80DEBF0FBECDBF0E9473050E9419040E94F1
S1130A908D0487E990E00E94990545EA50E060E002
S1130AA082E00E94A9050E94AD044AE0BE016F5F86
S1130AB07F4F0E94CF0ECE0101960E9499058FEDC3
S1130AC00E94670580EB90E00E949905E6CF88BB01
S1130AD0AB9885B3846185BB0000AA9881E28A95AE
S1130AE0F1F70000089584B38C6184BB8FEF87BB5A
S1130AF087E893E10197F1F700C0000088E390E0F4
S1130B000E94B6028CE090E00E94B60286E090E07B
S1130B100E94B60281E090E00E94B60283EF91E069
S1130B200197F1F700C0000080E890E00E94B6024F
S1130B300895CF93DF93EC018881882339F02196BF
S1130B4090E00E94DE0289918111FACFDF91CF916A
S1130B500895CF93DF93EA01813039F46F70862FC3
S1130B60806890E00E94B60208C0823031F46F7051
S1130B70862F806C90E00E94B602CE010E9427036B
S1130B80DF91CF9108950E9406030E9451038CE0E7
S1130B900E94B60284EB90E00E94270383ED90E369
S1130BA00197F1F700C000008CEB90E00E9427034E
S1130BB083ED90E30197F1F700C0000080EC0E9400
S1130BC0B60280EC90E00E9427038FE493EC019737
S1130BD0F1F700C000000E9451038FEC90E00E94E6
S1130BE0270383ED90E30197F1F700C0000085ED42
S1130BF090E00E94270383ED90E30197F1F700C092
S1130C00000080EC0E94B60282EE90E00E9427036E
S1130C108FE493EC0197F1F700C000000E945103A8
S1130C2081EF90E00E94270383ED90E30197F1F7B1
S1130C3000C0000080EC0E94B6028CE091E00E94AB
S1130C4027038FE493EC0197F1F700C000000E94A2
S1130C50510384E191E00E94270383ED90E301971F
S1130C60F1F700C0000080EC0E94B60280E291E03F
S1130C700E9427038FE493EC0197F1F700C0000072
S1130C800E94510388E291E00E94270383ED90E3E0
S1130C900197F1F700C0000080EC0E94B6028FE3D8
S1130CA091E00E9427038FE493EC0197F1F700C0D1
S1130CB000000E94510387E491E00E94270383ED22
S1130CC090E30197F1F700C0000080EC0E94B602A7
S1130CD089E591E00E9427038FE493EC0197F1F7F3
S1130CE000C000000E94510341E651E060E080E052
S1130CF00E9436030E945E038093DF010E94DE029D
S1130D008FE493EC0197F1F700C0000008950E946E
S1130D10C3058091DF018233C9F018F4813331F0C7
S1130D2045C0833319F1843389F140C080EC0E94BB
S1130D30B60281EF90E00E9427030E9400028FE434
S1130D4093EC0197F1F700C000003DC080EC0E94D5
S1130D50B60284E191E00E9427030E9439058FE4E2
S1130D6093EC0197F1F700C000002DC080EC0E94C5
S1130D70B6028FE691E00E9427030E9469098FE47E
S1130D8093EC0197F1F700C000001DC080EC0E94B5
S1130D90B60287E491E00E9427030E94A0078FE433
S1130DA093EC0197F1F700C000000DC080EC0E94A5
S1130DB0B60285E891E00E9427038FE493EC019743
S1130DC0F1F700C000000E94FB0380E090E008956A
S1130DD08F929F92AF92BF92CF92DF92EF92FF9247
S1130DE049015A010E94F70B6B017C01C501B40152
S1130DF00E94F70B9B01AC01C701B6010E94130BC3
S1130E002EED37E341E350EC0E94060E22E434E376
S1130E1049EE52E40E94990DFF90EF90DF90CF903D
S1130E20BF90AF909F908F90089596B1987F96B998
S1130E308031B9F038F4843071F0883071F0823048
S1130E40F1F407C0803499F08038A9F08032B9F405
S1130E500AC0309A0895319A089586B1836086B99C
S1130E600895329A089586B1856086B9089586B149
S1130E70866086B9089586B1876086B9089586B17B
S1130E8086B9089597B19F7397B9813039F018F0F6
S1130E90823031F009C087B187B908953E9A089528
S1130EA087B1806C87B9089587B187B90895CF93C6
S1130EB0DF93D62FC42F379A359A0E9415078D2FAA
S1130EC00E944207CC2311F03D9A01C03D987894CA
S1130ED0DF91CF91089597B1907C97B9482F50E056
S1130EE048305105F0F4FA01E65DFF4F0C94870E8B
S1130EF087B187B90895389A0895399A089587B1C2
S1130F00836087B908953A9A089587B1856087B94F
S1130F10089587B1866087B9089587B1876087B9D6
S1130F20089597B18F71892B87B908950E946B0733
S1130F30369A349BFECF84B125B190E0922B08956C
S1130F40CF93DF93CDB7DEB7C456D1090FB6F8946B
S1130F50DEBF0FBECDBFD09A8A9A40E061E081E047
S1130F600E9457078CE00E94C808812C912CA12C68
S1130F70B12C0F2EC12CF0ECDF2EF7E5EF2EFF2461
S1130F80F394F02D80E00E949607009771F09C0185
S1130F9040E050E0C701B6010E94680ECA01B901E1
S1130FA0605F75458109910904C0682D792D8A2DEA
S1130FB09B2D23E233EA40E050E00E94E8062B0137
S1130FC03C018E010F5F1F4F25E043E00E94AF0EEE
S1130FD060E070E080E090E00E94CB0181E991E064
S1130FE00E94B80860E070E086E090E00E94CB01C7
S1130FF0C8010E94B80860E070E08FE090E00E94B1
S1131000CB0187E991E00E94B80820E030E048EC89
S113101052E4C301B2010E94CE0C181664F461E0DC
S113102070E080E090E00E94CB018BE991E00E94A7
S1131030B808929AA7CF929861E070E080E090E0BF
S11310400E94CB0185EA91E00E94B8089BCFAA9A3E
S11310500000AA980895CF93C82F662311F0A89A88
S113106001C0A898A998A39AA49AA59AA69AAE98FA
S1131070AD98AC98AB98CC230CF4AE9AC6FDAD9A5F
S1131080C5FDAC9AC4FDAB9A0E942708AE98AD98F2
S1131090AC98AB98C3FDAE9AC2FDAD9AC1FDAC9AB3
S11310A0C0FDAB9A0E942708AB9AAC9AAD9AAE9A4F
S11310B0CF910895882311F0A89A01C0A898A99AFD
S11310C0A398A498A598A698AA9A00009B9B02C0EE
S11310D080E101C080E09C9980629D9980649E9922
S11310E08068AA980000AA9A00009B9981609C9944
S11310F082609D9984609E998860AA98089580E092
S11311000E945A088823DCF300C000C080E00E94DB
S11311105A080895CF93C82F0E947F0860E08C2F4F
S11311200E942B08CF91089581E00E948A080895B7
S1131130CF93C82F0E947F08CA30A1F4843148F0AD
S113114090EC980F943138F084518C3230F080E078
S113115005C080E403C084E101C084E580580E9496
S11311608A0804C061E08C2F0E942B08CF91089557
S1131170CF93DF93EC012196FC018081882329F031
S11311800E94980889918111FBCFDF91CF91089536
S1131190CF93C82FA09AA19AA29AA39AA49AA59A87
S11311A0A69A8FE99FE00197F1F700C00000AC9A7E
S11311B0AB9A0E94270881EE94E00197F1F700C0F2
S11311C000000E94270895E19A95F1F700000E941B
S11311D0270885E18A95F1F70000AB980E9427085B
S11311E095E19A95F1F7000088E20E948A0888E068
S11311F00E948A080E94940886E00E948A088C2F24
S11312000E948A08CF9108951ABA87E886B980E4C3
S113121087B908958770806487B9369A349BFECF66
S1131220349A89EF90E00197F1F700C0000084B18F
S113123095B1089582BBAE98AF9A0000AF988DEE39
S113124092E00197F1F700C00000089582BBAE9AC6
S1131250AF9A0000AF98E9EFF0E03197F1F700C0E2
S1131260000008958FEF84BB81BB87E893E1019769
S1131270F1F700C0000088E30E941A098CE00E9484
S11312801A0986E00E941A0981E00E941A0980E87E
S11312900E941A0908950F931F93CF93DF938C0133
S11312A0FC018081882339F0E80121960E942609F7
S11312B089918111FBCFF8018081DF91CF911F913A
S11312C00F91089581E00E941A0980E80E941A098A
S11312D00895CF93DF93CDB7DEB72A970FB6F8946E
S11312E0DEBF0FBECDBF8FEF87BB0E9404090E94F3
S11312F0320983ED90E30197F1F700C000000F2E4F
S1131300FFECEF2EF1E0FF2EF02D8E010F5F1F4F4B
S11313100E94620980E80E941A0980EB91E00E9411
S11313204B099FE32DE083E0915020408040E1F79A
S113133000C0000080EC0E941A098AEB91E00E9430
S11313404B099FE32DE083E0915020408040E1F77A
S113135000C000000E94620988E30E941A099FE508
S11313602AEE80E0915020408040E1F700C0000068
S113137083EC91E00E944B0980EC0E941A099FE5DE
S11313802AEE80E0915020408040E1F700C0000048
S113139080E00E940A09BC01990F880B990B0E94F6
S11313A0F70B2AE038E240EA5BE30E94990D20E063
S11313B030E040EA50E40E94130B2CE53FE842EC95
S11313C05DE30E94300A2CEB34E743E15CE30E94C6
S11313D0130B20E030E040E85FE30E942F0A0E94F4
S11313E0BF0B7F936F93FF92EF921F930F930E9413
S11313F0F40EC8010E944B099FE72AE186E0915050
S113140020408040E1F700C000000E9462099FE391
S11314102DE083E0915020408040E1F700C00000BF
S11314200E9462099FE32DE083E0915020408040B8
S1131430E1F700C0000082ED91E00E944B099FE7B4
S113144024E88EE1915020408040E1F700C0000084
S11314500F900F900F900F900F900F9059CF5058FE
S1131460BB27AA270E94470A0C94940C0E94860C5E
S113147038F00E948D0C20F039F49F3F19F426F4C3
S11314800C945C0C0EF4E095E7FB0C94560CE92FDD
S11314900E94A50C58F3BA176207730784079507CF
S11314A020F079F4A6F50C94C70C0EF4E0950B2EFD
S11314B0BA2FA02D0B01B90190010C01CA01A001A2
S11314C01124FF27591B99F0593F50F4503E68F1FD
S11314D01A16F040A22F232F342F4427585FF3CF3E
S11314E0469537952795A795F0405395C9F77EF40F
S11314F01F16BA0B620B730B840BBAF09150A1F058
S1131500FF0FBB1F661F771F881FC2F70EC0BA0FDD
S1131510621F731F841F48F4879577956795B79565
S1131520F7959E3F08F0B0CF9395880F08F0992760
S1131530EE0F9795879508950E94860C60F080E8D9
S113154091E009F49EEF0E948D0C28F040E851E0F0
S113155071F45EEF0CC00C945C0C0C94C70CE92F76
S1131560E0780E94A50C40F3092E052AB1F3261752
S113157037074807590738F00E2E07F8E02569F0B9
S1131580E025E0640AC0EF6307F8009407FADB0182
S1131590B9019D01DC01CA01AD01EF930E942A0B40
S11315A00E94940C0E94DF0A5F91552339F02BEDC1
S11315B03FE049E450FD49EC0C94300A0895DF9370
S11315C0DD27B92FBF7740E85FE3161617064807F3
S11315D05B0718F4D92F0E94D30C9F938F937F93AA
S11315E06F930E94560EE4E6F0E00E945F0C0E94A6
S11315F0940C2F913F914F915F910E94AC0DDD238C
S113160051F09058A2EA2AED3FE049EC5FE3D0782C
S11316105D270E94470ADF910C94940C0E94320CBF
S113162008F481E008950E94270B0C94940C0E9406
S11316308D0C58F00E94860C40F029F45F3F29F08D
S11316400C94560C51110C94C80C0C945C0C0E9414
S1131650A50C68F39923B1F3552391F3951B550B0E
S1131660BB27AA2762177307840738F09F5F5F4F71
S1131670220F331F441FAA1FA9F335D00E2E3AF0B0
S1131680E0E832D091505040E695001CCAF72BD0C8
S1131690FE2F29D0660F771F881FBB1F2617370719
S11316A04807AB07B0E809F0BB0B802DBF01FF274B
S11316B093585F4F3AF09E3F510578F00C94560CC6
S11316C00C94C80C5F3FE4F3983ED4F38695779569
S11316D06795B795F7959F5FC9F7880F911D969504
S11316E0879597F90895E1E0660F771F881FBB1F60
S11316F0621773078407BA0720F0621B730B840B0D
S1131700BA0BEE1F88F7E095089529F416F00C94AF
S1131710560C0C94C70C0C945C0C0E94AD0CA8F3F2
S11317209638A0F707F80F92E8942BE33AEA48EBCF
S11317305FE70E94AF0D0F920F920F924DB75EB705
S11317400F920E94650DE1E9F0E00E945F0C4F9159
S11317505F91EF91FF91E595EE1FFF1F49F0FE5752
S1131760E0684427EE0F441FFA95E1F74195550BC5
S11317700E94DF0C0F9007FE0C94D30C08950E9476
S1131780C60B6894B1110C94C80C08950E94AD0C5A
S113179088F09F5798F0B92F9927B751B0F0E1F02E
S11317A0660F771F881F991F1AF0BA95C9F714C0DE
S11317B0B13091F00E94C70CB1E008950C94C70CAD
S11317C0672F782F8827B85F39F0B93FCCF3869517
S11317D077956795B395D9F73EF490958095709574
S11317E061957F4F8F4F9F4F0895E89409C097FBF1
S11317F03EF490958095709561957F4F8F4F9F4FE4
S11318009923A9F0F92F96E9BB279395F695879527
S113181077956795B795F111F8CFFAF4BB0F11F4EA
S113182060FF1BC06F5F7F4F8F4F9F4F16C0882391
S113183011F096E911C0772321F09EE8872F762FC7
S113184005C0662371F096E8862F70E060E02AF008
S11318509A95660F771F881FDAF7880F96958795F4
S113186097F90895990F0008550FAA0BE0E8FEEFC9
S113187016161706E807F907C0F012161306E40750
S1131880F50798F0621B730B840B950B39F40A2649
S113189061F0232B242B252B21F408950A2609F427
S11318A0A140A6958FEF811D811D089597F99F672B
S11318B080E870E060E008959FEF80EC0895DF9386
S11318C0CF931F930F93FF92EF92DF927B018C01D2
S11318D0689406C0DA2EEF010E94AC0DFE01E89474
S11318E0A5912591359145915591A6F3EF010E945B
S11318F0470AFE019701A801DA9469F7DF90EF9097
S1131900FF900F911F91CF91DF91089500240A94C5
S11319101616170618060906089500240A941216C6
S11319201306140605060895092E0394000C11F4F9
S1131930882352F0BB0F40F4BF2B11F460FF04C0A6
S11319406F5F7F4F8F4F9F4F089557FD9058440FFF
S1131950551F59F05F3F71F04795880F97FB991F0A
S113196061F09F3F79F087950895121613061406C7
S1131970551FF2CF4695F1DF08C016161706180654
S1131980991FF1CF86957105610508940895E8942F
S1131990BB2766277727CB0197F908950E94320C5D
S11319A008F48FEF08959B01AC0160E070E080E8DB
S11319B09FE30C94130B0C94560C0C945A0E0E9437
S11319C0AD0CD8F39923C9F3940F511DA3F391508F
S11319D0504094F059F0882332F0660F771F881F27
S11319E091505040C1F79E3F51052CF7880F911D2F
S11319F09695879597F908955F3FACF0983E9CF0D3
S1131A00BB27869577956795B79508F4B16093954C
S1131A10C1F7BB0F58F711F460FFE8CF6F5F7F4F3A
S1131A208F4F9F4FE3CF0C94C80C16F00C945A0EB2
S1131A300C945C0C68940C94560C0E94AD0CA8F3A6
S1131A409923C1F3AEF3DF93CF931F930F93FF92C8
S1131A50C92FDD2788232AF02197660F771F881F57
S1131A60DAF720E030E040E85FEB9FE3883920F0CC
S1131A70803E38F021968F770E94300AE9EBF0E03F
S1131A8004C00E94300AE6EEF0E00E945F0C8B0175
S1131A90BE01EC01FB2E6F5771097595771F880BFA
S1131AA0990B0E94F70B28E132E741E35FE30E94C0
S1131AB0AC0DAF2D9801AE01FF900F911F91CF9106
S1131AC0DF910E94470A0C94940CFA01DC01AA0FDE
S1131AD0BB1F9B01AC01BF5728F42227332744279F
S1131AE0507820C0B75190F4AB2F00244695379519
S1131AF02795011CA395D2F3002071F0220F331F08
S1131B00441FB395DAF30ED00C942F0A613071059B
S1131B10A0E88A07B94630F49B01AC016627772711
S1131B2088279078309621F0208331834283538331
S1131B3008950E94AC0D0C94940C0E94860C38F00D
S1131B400E948D0C20F0952311F00C94560C0C94EB
S1131B505C0C11240C94C80C0E94A50C70F3959F86
S1131B60C1F3950F50E0551F629FF001729FBB2790
S1131B70F00DB11D639FAA27F00DB11DAA1F649F2C
S1131B806627B00DA11D661F829F2227B00DA11DDF
S1131B90621F739FB00DA11D621F839FA00D611D65
S1131BA0221F749F3327A00D611D231F849F600D86
S1131BB0211D822F762F6A2F11249F5750409AF0AF
S1131BC0F1F088234AF0EE0FFF1FBB1F661F771F3B
S1131BD0881F91505040A9F79E3F510580F00C9406
S1131BE0560C0C94C80C5F3FE4F3983ED4F38695EE
S1131BF077956795B795F795E7959F5FC1F7FE2BA6
S1131C00880F911D9695879597F90895FA01EE0F1F
S1131C10FF1F309621053105A1F16115710561F4AD
S1131C208038BFE39B0749F168949038810561F0DF
S1131C308038BFEF9B0741F099234AF5FF3FE10548
S1131C403105210519F1E8940894E795D901AA23EF
S1131C5029F4AB2FBE2FF85FD0F310C0FF5F70F4F0
S1131C60A695E0F7F73950F019F0FF3A38F49F776A
S1131C709F930DD00F9007FC9058089546F00C9454
S1131C805C0C60E070E080E89FE308954FE79F7785
S1131C905F934F933F932F930E941D0D2F913F917C
S1131CA04F915F910E94990D0C948D0B9B01AC0197
S1131CB00C94990D9F3F31F0915020F487957795BE
S1131CC06795B795880F911D9695879597F908950F
S1131CD0052E97FB1EF400940E947F0E57FD07D03B
S1131CE00E948D0E07FC03D04EF40C947F0E509589
S1131CF04095309521953F4F4F4F5F4F08959095F4
S1131D008095709561957F4F8F4F9F4F0895EE0F8B
S1131D10FF1F0590F491E02D0994A1E21A2EAA1B4D
S1131D20BB1BFD010DC0AA1FBB1FEE1FFF1FA21787
S1131D30B307E407F50720F0A21BB30BE40BF50B84
S1131D40661F771F881F991F1A9469F7609570950D
S1131D50809590959B01AC01BD01CF010895EF9250
S1131D600F931F93CF93DF93E80147FD02C034E044
S1131D7001C034E1042E000C550B57FF03C05195EC
S1131D8041955109E32E022F242FAE010E94F71032
S1131D90CE01DF91CF911F910F91EF900895BB2752
S1131DA04A3031F4992322F4BDE2909581959F4FF6
S1131DB00C94DB0EBB27FB015527AA27880F991F1C
S1131DC0AA1FA41710F0A41B83955051B9F7A05D66
S1131DD0AA3308F0A95DA193009779F7B111B193E3
S1131DE01192CB010C943F13AEE0B0E0EAEFFEE0B9
S1131DF00C94F7130D891E8986E08C831A8309835A
S1131E008FEF9FE79E838D83AE01475E5F4F6F899F
S1131E10788DCE0101960E94160FEF81F885E00FB0
S1131E20F11F10822E96E4E00C941314ABE0B0E0A2
S1131E30ECE1FFE00C94E9136C017B018A01FC01E5
S1131E4017821682838181FFCCC1CE0101963C01A9
S1131E50F6019381F70193FD859193FF81917F01B1
S1131E60882309F4BAC1853239F493FD859193FF2F
S1131E7081917F01853229F4B60190E00E944F13CD
S1131E80E7CF912C212C312CFFE1F315D8F08B32C4
S1131E9079F038F4803279F08332A1F4232D206173
S1131EA01DC08D3261F0803369F4232D216016C08A
S1131EB0832D8260382EE32DE4603E2E2AC0F32D5C
S1131EC0F8601DC037FC2DC020ED280F2A3040F0EB
S1131ED08E32B9F436FC81C1232D2064322E19C010
S1131EE036FE06C08AE0989E200D1124922E11C061
S1131EF0EAE02E9E200D1124222EF32DF0623F2EB7
S1131F0008C08C3621F4832D8068382E02C08836B0
S1131F1041F4F70193FD859193FF81917F01811134
S1131F20B3CF982F9F7D9554933028F40C5F1F4FA7
S1131F309FE399830DC0833631F0833771F0833585
S1131F4009F059C021C0F801808189830E5F1F4FB9
S1131F5088248394912C530113C02801F2E04F0E7E
S1131F60511CF801A080B18036FE03C0692D70E0D9
S1131F7002C06FEF7FEFC5010E9434134C01820150
S1131F80F32DFF773F2E16C0280122E0420E511C8C
S1131F90F801A080B18036FE03C0692D70E002C054
S1131FA06FEF7FEFC5010E9429134C01F32DF068F8
S1131FB03F2E820133FC1BC0822D90E088169906C7
S1131FC0B0F4B60180E290E00E944F132A94F4CF5B
S1131FD0F50137FC859137FE81915F01B60190E0F0
S1131FE00E944F1321102A9421E0821A910881142F
S1131FF0910471F7E8C0843611F0893641F5F8018F
S113200037FE07C060817181828193810C5F1F4F0D
S113201008C060817181072E000C880B990B0E5F3C
S11320201F4FF32DFF763F2E97FF09C090958095A3
S1132030709561957F4F8F4F9F4FF0683F2E2AE038
S113204030E0A3010E948B13882E861845C0853783
S113205031F4232D2F7EB22E2AE030E025C0932DBB
S1132060997FB92E8F36C1F018F4883579F0B5C050
S1132070803719F0883721F0B0C0E92FE061BE2E17
S1132080B4FE0DC0FB2DF460BF2E09C034FE0AC09F
S1132090292F2660B22E06C028E030E005C020E1DA
S11320A030E002C020E132E0F801B7FE07C06081F1
S11320B07181828193810C5F1F4F06C060817181A1
S11320C080E090E00E5F1F4FA3010E948B13882EC7
S11320D08618FB2DFF773F2E36FE0DC0232D2E7F55
S11320E0A22E891458F434FE0BC032FC09C0832D8F
S11320F08E7EA82E05C0B82CA32C03C0B82C01C01A
S1132100B92CA4FE0FC0FE01E80DF11D80818033BF
S113211021F49A2D997EA92E09C0A2FE06C0B3947B
S1132120B39404C08A2D867809F0B394A3FC11C03B
S1132130A0FE06C0B21488F4280C922C9B180EC082
S1132140B21460F4B60180E290E00E944F13B3949D
S1132150F7CFB21418F42B1802C0982C212CA4FE2B
S113216010C0B60180E390E00E944F13A2FE17C096
S1132170A1FC03C088E790E002C088E590E0B601C6
S11321800CC08A2D867859F0A1FE02C08BE201C0F2
S113219080E2A7FC8DE2B60190E00E944F138914FF
S11321A038F4B60180E390E00E944F139A94F7CF7D
S11321B08A94F301E80DF11D8081B60190E00E943C
S11321C04F138110F5CF222009F442CEB60180E2EC
S11321D090E00E944F132A94F6CFF60186819781EE
S11321E002C08FEF9FEF2B96E2E10C940514A9E057
S11321F0B0E0EDEFF0E10C94EF136A01122FB02E72
S11322002BE3201720F0FF24F394F00E02C02CE3FC
S1132210F22E0F2D27E0AE014F5F5F4F0E94511247
S1132220BC014981842F8970813031F0E1FC06C002
S1132230E0FE06C090E205C09DE203C09BE201C03F
S113224090E05E2D507143FF3CC0911102C083E0C9
S113225001C084E0811718F4212F281B01C020E05D
S113226051110BC0F601822F30E2882319F031930B
S11322708150FBCFC20ED11C20E0992329F0D60156
S11322809C93F60131966F01C6010396E2FE0AC0E3
S11322903EE4D6013C9341E411964C931197129677
S11322A03C9306C03EE6F601308341E64183328327
S11322B0FC01322F40E2332309F442C041933150F0
S11322C0FACF42FF44C0911102C083E001C084E010
S11322D0811718F4212F281B01C020E051110BC0D5
S11322E0F601822F30E2882319F031938150FBCF1D
S11322F0C20ED11C20E0992329F0D6019C93F6014B
S113230031966F01C6010396E2FE0BC039E4D60193
S11323103C933EE411963C93119736E412963C9319
S113232007C039E6F60130833EE6318336E6328370
S1132330FC01322F40E2332319F041933150FBCF9B
S1132340FC01E20FF11D10828EEF9FEFA6C021E089
S113235030E0911102C020E030E0161617061CF49C
S1132360FB01319602C0E1E0F0E02E0F3F1FBB20DD
S113237021F0EB2DF0E0319602C0E0E0F0E02E0F0A
S11323803F1FE12FF0E02E173F071CF4121B212FF3
S113239001C020E08E2D887159F4F601822F30E2BD
S11323A0882319F031938150FBCFC20ED11C20E059
S11323B0992329F0D6019C93F60131966F015111AE
S11323C00BC0F601822F90E3882319F0919381507A
S11323D0FBCFC20ED11C20E00F2D060F9A81342FA3
S11323E0307144FF03C0913309F40150101624F4F2
S11323F0093018F008E001C001E0AB0177FF02C02A
S113240040E050E0FB01E41BF50BA1E0B0E0AC0FB1
S1132410BD1FEA0FFB1F8EE2A82E4B01801A910804
S11324200B2D10E01195019511094F3FBFEF5B078C
S113243021F4D601AC9211966D01641775072CF046
S11324408416950614F4818101C080E3415051093A
S11324503196D60111967D014017510724F0D6011B
S11324608C936701E2CF6417750739F4963320F42F
S1132470953319F4311101C081E3F6018083F7012A
S1132480822F90E2882319F091938150FBCFF701BA
S1132490E20FF11D108280E090E02996ECE00C94AC
S11324A00B14283008F027E03327DA01990F311D87
S11324B087FD916000966105710539F432602E5FE5
S11324C03D9330E32A95E1F708959F3F30F080383B
S11324D07105610509F03C5F3C5F3D93913008F064
S11324E08068911DDF93CF931F930F93FF92EF9218
S11324F0192F987F9695E92F96959695E90FFF27C2
S1132500E259FE4F99273327EE24FF24A701E70160
S113251005900894079428F4360FE71EF81E491F07
S1132520511D660F771F881F991F0694A1F7059008
S1132530079428F4E70EF81E491F561FC11D770F94
S1132540881F991F661F0694A1F70590079428F425
S1132550F80E491F561FC71FD11D880F991F661FEC
S1132560771F0694A1F70590079420F4490F561F8E
S1132570C71FD81F990F661F771F881F0694A9F7D6
S113258084911095177041F0D695C7955795479546
S1132590F794E7941A95C1F7E4E1F1E06894159093
S11325A0159135916591959105907FE27395E118A8
S11325B0F10A430B560BC90BD009C0F7E10CF11E0D
S11325C0431F561FC91FD01D7EF4703311F48A9522
S11325D0E6CFE894015030F0080F0AF40027021700
S11325E008F4202F2395022F7A3328F079E37D9382
S11325F02A95E9F710C07D932A9589F60694979554
S11326006795379517951794E118F10A430B560B04
S1132610C90BD00998F023957E9173957A3308F00D
S113262070E37C932013B8F77E9170617D9330F052
S1132630839571E37D9370E32A95E1F71124EF907C
S1132640FF900F911F91CF91DF91992787FD90956E
S11326500895FC010590615070400110D8F78095F1
S113266090958E0F9F1F0895FC016150704001905A
S11326700110D8F7809590958E0F9F1F0895DC0167
S1132680FC01672F71917723E1F7329704C07C91A5
S11326906D9370836291AE17BF07C8F308950F93CB
S11326A01F93CF93DF93FB01238121FD03C08FEFA1
S11326B09FEF2CC022FF16C04681578124813581AB
S11326C04217530744F4A081B1819D012F5F3F4F0E
S11326D0318320838C93268137812F5F3F4F37834B
S11326E0268314C08B01EC01FB010084F185E02DED
S11326F00995892BE1F6D80116968D919C9117972F
S1132700019617969C938E931697CE01DF91CF91E5
S11327101F910F910895FA01AA27283051F1203111
S113272081F1E8946F936E7F6E5F7F4F8F4F9F4F61
S1132730AF4FB1E03ED0B4E03CD0670F781F891FA3
S11327409A1FA11D680F791F8A1F911DA11D6A0F71
S1132750711D811D911DA11D20D009F468943F9124
S11327602AE0269F11243019305D3193DEF6CF0123
S11327700895462F4770405D4193B3E00FD0C9F7E9
S1132780F6CF462F4F70405D4A3318F0495D31FD56
S11327904052419302D0A9F7EACFB4E0A6959795A9
S11327A0879577956795BA95C9F70097610571057F
S11327B008959B01AC010A2E0694579547953795C9
S11327C02795BA95C9F7620F731F841F951FA01D23
S11327D008952F923F924F925F926F927F928F92C1
S11327E09F92AF92BF92CF92DF92EF92FF920F939C
S11327F01F93CF93DF93CDB7DEB7CA1BDB0B0FB6A6
S1132800F894DEBF0FBECDBF09942A883988488862
S11328105F846E847D848C849B84AA84B984C884F8
S1132820DF80EE80FD800C811B81AA81B981CE0FEF
S1132830D11D0FB6F894DEBF0FBECDBFED010895D4
S1072840F894FFCF36
S11328443738392F3435362A3132332D20303D2B65
S113285448756D6964697479203D0054656D7065CB
S1132864726174757265203D20004572726F720046
S11328742E002500432000204D61676E65746F6D42
S1132884657465720048656164696E67203D200063
S11328942020200057454C434F4D450020544F0001
S11328A42020204F55522050524F4A45435400454E
S11328B46E746572002074686520627574746F6E3A
S11328C4730020746F20676574204F757470757479
S11328D40054656D706572617475726520616E640F
S11328E42048756D69646974793A2000456E74658D
S11328F472203100446972656374696F6E3A200012
S1132904456E74657220320041746D6F737068652E
S11329147269632050726573737572653A20004559
S11329246E74657220330041697220436F6D706F59
S1132934736974696F6E3A2000456E74657220344D
S113294400456E7465722061206B65793A200041FC
S1132954746D6F7370686572696320507265737304
S11329647572653A0057726F6E6720696E7075747C
S113297400434F323A200070706D0042757A7A65D4
S113298472204F4E0042757A7A6572204F46460093
S1132994507265737375726520006D6F6E69746F20
S11329A47220005072657373757265203D20002592
S10929B464004B70610099
S9030000FC
